:100000000C9463000C948B000C948B000C942307CD
:100010000C9423070C9423070C948B000C948B00F6
:100020000C948B000C948B000C948B000C949B070D
:100030000C948B000C948B000C948B000C948B0014
:100040000C9481060C948B000C94F1060C94CB0656
:100050000C948B000C948B000C948B000C948B00F4
:100060000C948B000C948B000000000024002700EF
:100070002A0000000008000201000003040700003D
:1000800000000000000000000000230026002900FE
:1000900000000000250028002B00040404040404D0
:1000A0000404020202020202030303030303010227
:1000B00004081020408001020408102001020408F6
:1000C00010207208830C11241FBECFEFD8E0DEBFD2
:1000D000CDBF11E0A0E0B1E0E4E9FFE102C005908E
:1000E0000D92A037B107D9F722E0A0E7B1E001C037
:1000F0001D92A13CB207E1F710E0C2E6D0E004C0D7
:100100002197FE010E94BE0DC136D107C9F70E949A
:100110003E090C94BD0F0C940000833081F028F44C
:10012000813099F08230A9F008958730A9F08830A5
:10013000C9F08430B1F4809180008F7D03C080913C
:1001400080008F7780938000089584B58F7784BD79
:10015000089584B58F7DFBCF8091B0008F77809319
:10016000B00008958091B0008F7DF9CFCF93DF93D9
:10017000282F30E0F901EE58FF4F8491F901E25544
:10018000FF4FD491F901E656FF4FC491CC23A1F063
:1001900081110E948D00EC2FF0E0EE0FFF1FEA5757
:1001A000FF4FA591B491EC91ED2381E090E009F42B
:1001B00080E0DF91CF91089580E090E0FACF1F9327
:1001C000CF93DF93282F30E0F901EE58FF4F849151
:1001D000F901E255FF4FD491F901E656FF4FC49162
:1001E000CC23A9F0162F81110E948D00EC2FF0E096
:1001F000EE0FFF1FE057FF4FA591B4918FB7F89412
:10020000EC91111108C0D095DE23DC938FBFDF91F4
:10021000CF911F910895DE2BF8CFCF93DF9390E01D
:10022000FC01E255FF4F249186569F4FFC018491BB
:100230008823D1F090E0880F991FFC01E859FF4F07
:10024000A591B491FC01E057FF4FC591D491611184
:100250000EC09FB7F8948C91E22FE0958E238C937B
:100260002881E223E8839FBFDF91CF9108958FB764
:10027000F894EC91E22BEC938FBFF6CF8E3008F020
:100280008E508770806480937C0080917A008064B7
:1002900080937A0080917A0086FDFCCF809178006F
:1002A0009091790008953FB7F8948091E80190917A
:1002B000E901A091EA01B091EB0126B5A89B05C028
:1002C0002F3F19F00196A11DB11D3FBFBA2FA92FD5
:1002D000982F8827BC01CD01620F711D811D911DD2
:1002E00042E0660F771F881F991F4A95D1F708953E
:1002F0008F929F92AF92BF92CF92DF92EF92FF9236
:100300006B017C010E9453014B015C01C114D104BB
:10031000E104F104B9F00E945301681979098A09CE
:100320009B09683E73408105910580F321E0C21A64
:10033000D108E108F10888EE880E83E0981EA11C20
:10034000B11CE4CFFF90EF90DF90CF90BF90AF90C3
:100350009F908F900895AF92BF92CF92DF92EF92CD
:10036000FF920F931F93CF93DF936C017B018B015F
:10037000040F151FEB015E01AE18BF08C017D107AF
:1003800059F06991D601ED91FC910190F081E02D39
:10039000C6010995892B79F7C501DF91CF911F918E
:1003A0000F91FF90EF90DF90CF90BF90AF900895A6
:1003B000FC01538D448D252F30E0842F90E0821B6B
:1003C000930B541710F0CF96089501970895FC01F0
:1003D000918D828D981761F0A28DAE0FBF2FB11D48
:1003E0005D968C91928D9F5F9F73928F90E00895A0
:1003F0008FEF9FEF0895FC01918D828D981731F05A
:10040000828DE80FF11D858D90E008958FEF9FEFAD
:100410000895FC01918D228D892F90E0805C9F4F83
:10042000821B91098F73992708958CEE91E00E94A9
:10043000090221E0892B09F420E0822F089580E051
:1004400090E0892B29F00E94150281110C94000084
:100450000895FC01A48DA80FB92FB11DA35ABF4F59
:100460002C91848D90E001968F739927848FA689B3
:10047000B7892C93A089B1898C91837080648C9307
:10048000938D848D981306C00288F389E02D8081B6
:100490008F7D80830895EF92FF920F931F93CF93E8
:1004A000DF93EC0181E0888F9B8D8C8D98131AC0AF
:1004B000E889F989808185FF15C09FB7F894EE8996
:1004C000FF896083E889F9898081837080648083F3
:1004D0009FBF81E090E0DF91CF911F910F91FF903E
:1004E000EF900895F62E0B8D10E00F5F1F4F0F73E6
:1004F0001127E02E8C8D8E110CC00FB607FCFACFA1
:10050000E889F989808185FFF5CFCE010E94290213
:10051000F1CFEB8DEC0FFD2FF11DE35AFF4FF08271
:100520009FB7F8940B8FEA89FB8980818062CFCFD7
:10053000CF93DF93EC01888D8823B9F0AA89BB891A
:10054000E889F9898C9185FD03C0808186FD0DC005
:100550000FB607FCF7CF8C9185FFF2CF808185FF26
:10056000EDCFCE010E942902E9CFDF91CF9108950E
:100570002091D8013091D9012817390771F4909151
:10058000D6018091D701981741F0E091D601F0E0B3
:10059000EA56FE4F808190E008958FEF9FEF089517
:1005A0000895EF92FF920F931F93CF93DF93DC0197
:1005B0005C96ED90FC905D97E114F10479F481E094
:1005C00090E013969C938E93129790E080E0DF91D9
:1005D000CF911F910F91FF90EF9008955196ED915B
:1005E000FC91529750968C915097982F90950FB7F9
:1005F0005E962C915E97122F127021FD6095F894F3
:100600002081112319F1282B2083E7012197F1F78D
:1006100028E0462F50E0308160FF1AC0382B30832D
:10062000E7012197F1F7BA0175956795215089F790
:10063000112381F08081892380830FBF5C968D9187
:100640009C910197F1F781E090E0C1CF2923DCCFA5
:100650003923E5CF9081892BEFCF2091D8013091BC
:10066000D9012817390761F48091D7012091D6016B
:1006700090E0805C9F4F821B91098F7399270895AA
:1006800090E080E008952091D8013091D901281799
:100690003907B9F49091D6018091D701981789F064
:1006A000E091D601F0E0EA56FE4F80812091D6011C
:1006B00030E02F5F3F4F2F7333272093D60190E018
:1006C00008958FEF9FEF089590E080E00895CF9216
:1006D000DF92EF92FF92CF93DF93EC01603282E0E2
:1006E0007807CCF5653B710514F064EB70E0898107
:1006F00028E830E0281B310987FD3395220F331F8E
:10070000220F331F6901330FEE08FF088A8128E5A5
:1007100032E0281B310987FD3395220F331F220F4A
:10072000331F032E000C440B550B2C193D094E09A9
:100730005F09DB0177FF02C0B0E0A0E00E94420D3C
:1007400024EB30E040E050E00E94180DC20ED31EB2
:10075000E41EF51EB601E881EC3070F5298188E8C9
:1007600090E0821B910927FD9395880F991F880FB0
:10077000991F681779077CF02A8188E592E0821B2F
:10078000910927FD9395880F991F880F991F681766
:1007900079070CF4CB010297880F991F4FB7F89493
:1007A0002E2F30E0F901EE0FFF1FE20FF31FEE587E
:1007B000FE4F928381834FBFDF91CF91FF90EF90E7
:1007C000DF90CF9008951F93CF93DF93EC01162F06
:1007D00088818C3008F04EC061E0812F0E940D01AD
:1007E0008881282F30E0F901EE0FFF1FE20FF31F81
:1007F000EE58FE4F1F736081607C612B608319820D
:100800001A822CE0622F0E94B20D829FB001112447
:1008100030E020E0AB01420F531FFA01EE0FFF1F43
:10082000E40FF51FEE58FE4F908196FD16C02F5F26
:100830003F4F2C30310571F781110FC010928000AD
:1008400082E0809381001092850010928400B19A1A
:1008500080916F00826080936F00E8818E2F90E01E
:10086000FC01EE0FFF1FE80FF91FEE58FE4F8081CD
:10087000806480838881DF91CF911F9108950F93C9
:100880001F93CF93DF93EC018B01BA01550F880BB7
:10089000990B0E947801B801CE01DF91CF911F9191
:1008A0000F910C946703E091DA01F091DB01E830DD
:1008B000F10508F082C0E15AFB4F0C94BE0D6704AD
:1008C0007C04940499049E04A104B604CB044AE079
:1008D00050E064EB70E084EB92E00E943F0450E053
:1008E00040E064EB70E087EB92E00E943F0450E050
:1008F00040E070E060E014C04AE050E070E060E08A
:1009000084EB92E00E943F0450E040E070E060E041
:1009100087EB92E00E943F0450E040E064EB70E01F
:100920008AEB92E00C943F044AE050E070E060E013
:10093000D2CF4AE050E064EB70E0E2CF44E150E017
:10094000DDCF4AE050E06DE270E084EB92E00E947F
:100950003F0450E040E06AE570E087EB92E00E94DF
:100960003F0450E040E06AE570E0DACF44E150E057
:1009700062E370E084EB92E00E943F0450E040E0CC
:1009800062E370E087EB92E00E943F0450E040E0B9
:1009900062E370E0C5CF70E060E084EB92E00E941B
:1009A000670364EB70E087EB92E00E94670364EBFF
:1009B00070E08AEB92E00C94670364EB70E084EBE8
:1009C00092E00E94670364EB70E087EB92E00E9484
:1009D000670370E060E0EDCFFB0101900020E9F7D4
:1009E0003197AF01461B570BDC01ED91FC91028062
:1009F000F381E02D09948F929F92AF92BF92EF9274
:100A0000FF920F931F93CF93DF93CDB7DEB7A197DC
:100A10000FB6F894DEBF0FBECDBF7C01FA01CB014B
:100A200019A2223008F42AE08E010F5D1F4F822E9A
:100A3000912CB12CA12CBF01A50194010E94810D24
:100A4000F901CA016A300CF5605DD8016E938D0121
:100A5000232B242B252B79F790E080E0109721F0B1
:100A6000BD01C7010E94EC04A1960FB6F894DEBF49
:100A70000FBECDBFDF91CF911F910F91FF90EF90EF
:100A8000BF90AF909F908F900895695CDECFCF921A
:100A9000DF92EF92FF920F931F93CF93DF93EC01BE
:100AA0006A017B01E881F9810190F081E02D6DE21E
:100AB00009958C0144275527BA014C195D096E0927
:100AC0007F092AE0CE010E94FB04800F911FDF9175
:100AD000CF911F910F91FF90EF90DF90CF900895ED
:100AE000CF93DF93AC01990F660B770B77FF10C0A4
:100AF0008CEE91E00E944705EC016BE271E08CEE18
:100B000091E00E94EC048C0F9D1FDF91CF9108951E
:100B10002AE08CEE91E00E94FB04EECFAB01770F50
:100B2000660B770B77FD0C9447052AE00C94FB04C9
:100B3000CF93DF93EC0188819981009711F00E9497
:100B4000670E198218821D821C821B821A82DF9115
:100B5000CF910895FC0180819181009711F00C9450
:100B6000670E08950F931F93CF93DF93EC01888155
:100B70009981009759F02A813B812617370730F079
:100B800081E0DF91CF911F910F9108958B016F5FED
:100B90007F4F0E94F00E009759F0998388831B8342
:100BA0000A832C813D81232B59F7FC011082E8CF69
:100BB00080E0E7CFEF92FF920F931F93CF93DF93E5
:100BC0006115710541F480E0DF91CF911F910F9184
:100BD000FF90EF90089541155105B1F07B01EC01B4
:100BE0000C811D81040F151FB8010E94B2058823D6
:100BF00051F3288139818C819D81B701820F931F28
:100C00000E94B60F1D830C8381E0DECFCF93DF936C
:100C1000EC01FB0144815581608171810E94DA05FC
:100C2000811103C0CE010E949805CE01DF91CF91C2
:100C30000895EF92FF920F931F93CF93DF93EC01F0
:100C40007B018A01BA010E94B20581110BC0CE015D
:100C50000E949805CE01DF91CF911F910F91FF90D7
:100C6000EF9008951D830C83B701888199810E94BC
:100C7000B60FF0CFFB0101900020E9F73197AF01EB
:100C8000461B570B0C9419060F931F93CF93DF93BA
:100C9000CDB7DEB762970FB6F894DEBF0FBECDBFFB
:100CA0008C01CB01F801118210821382128215820D
:100CB00014824AE0BE016F5F7F4F0E94CE0CBE01DE
:100CC0006F5F7F4FC8010E943A0662960FB6F89494
:100CD000DEBF0FBECDBFDF91CF911F910F91089561
:100CE000FC01118210821382128215821482FB0190
:100CF00001900020E9F73197AF01461B570B0C9488
:100D000019061F920F920FB60F9211242F933F9343
:100D10008F939F93AF93BF938091E4019091E501EE
:100D2000A091E601B091E7013091E30123E0230FA8
:100D30002D3758F50196A11DB11D2093E301809335
:100D4000E4019093E501A093E601B093E70180915F
:100D5000E8019091E901A091EA01B091EB010196BF
:100D6000A11DB11D8093E8019093E901A093EA01D0
:100D7000B093EB01BF91AF919F918F913F912F91D4
:100D80000F900FBE0F901F90189526E8230F029624
:100D9000A11DB11DD2CF1F920F920FB60F92112439
:100DA0002F933F934F935F936F937F938F939F9373
:100DB000AF93BF93EF93FF938CEE91E00E942902D3
:100DC000FF91EF91BF91AF919F918F917F916F9123
:100DD0005F914F913F912F910F900FBE0F901F90F9
:100DE00018951F920F920FB60F9211242F938F9385
:100DF0009F93EF93FF93E091FC01F091FD018081BF
:100E0000E0910202F091030282FD1BC0908180916B
:100E100005028F5F8F7320910602821741F0E091E7
:100E20000502F0E0E451FE4F958F80930502FF919B
:100E3000EF919F918F912F910F900FBE0F901F9068
:100E400018958081F4CF1F920F920FB60F92112444
:100E50002F933F934F935F936F937F938F939F93C2
:100E6000AF93BF93EF93FF93E091D801F091D90135
:100E7000309749F0A685B7858585968D91FF14C07A
:100E80009C918923A1F4FF91EF91BF91AF919F9124
:100E90008F917F916F915F914F913F912F910F9023
:100EA0000FBE0F901F9018959C91892361F7A3891D
:100EB000B4899C918589809589238C9386899789AB
:100EC0000197F1F7608D718DA685B785558538E05E
:100ED00020E0CB010197F1F7822F90E0959587955F
:100EE000282F4C91452309F02068315091F7868DC9
:100EF00081FD20958091D70190E001968F7399270D
:100F00003091D601381799F0A091D701B0E0AA56D8
:100F1000BE4F2C938093D701828D938D0197F1F76B
:100F2000A389B4898C919589892B8C93ACCF868DBC
:100F30008160868FF1CF1F920F920FB60F9211240E
:100F40002F933F934F935F936F937F938F939F93D1
:100F5000AF93BF93CF93DF93EF93FF938091700193
:100F6000C0917101D0E087FF24C0109285001092DB
:100F70008400809170018F5F809370018091700177
:100F8000082E000C990B8C179D0724F4809170019A
:100F90008C30C4F180918400909185000496803457
:100FA0009C4908F47AC08091840090918500049651
:100FB00076C080917001082E000C990B8C179D074C
:100FC000C4F6E09170018E2FEE0F990BFC01EE0F2D
:100FD000FF1FE80FF91FEE58FE4F808186FFC9CF33
:100FE000E09170018E2FEE0F990BFC01EE0FFF1FA9
:100FF000E80FF91FEE58FE4F808160E08F730E946A
:10100000DF00B7CF2091840030918500E09170011E
:101010008E2FEE0F990BFC01EE0FFF1FE80FF91F4B
:10102000EE58FE4F81819281820F931F9093890029
:1010300080938800E09170018E2FEE0F990BFC01D8
:10104000EE0FFF1FE80FF91FEE58FE4F808186FF5D
:1010500011C0E09170018E2FEE0F990BFC01EE0F85
:10106000FF1FE80FF91FEE58FE4F808161E08F737C
:101070000E94DF00FF91EF91DF91CF91BF91AF917F
:101080009F918F917F916F915F914F913F912F91A0
:101090000F900FBE0F901F90189580E49CE99093DD
:1010A0008900809388008FEF80937001E3CFFC016B
:1010B000909171019C3098F481E0890F80937101C7
:1010C0009083892F90E0FC01EE0FFF1FE80FF91FBE
:1010D000EE58FE4F88EB9BE09283818308958FEF5B
:1010E00080830895CF92DF92EF92FF921092EF01EA
:1010F0001092EE0198EEC92E93E0D92EE12CF12C3E
:10110000C092F001D092F101E092F201F092F3016D
:101110008BE091E09093ED018093EC0185EC90E001
:101120009093F9018093F80184EC90E09093FB0197
:101130008093FA0180EC90E09093FD018093FC0194
:1011400081EC90E09093FF018093FE0182EC90E0AF
:10115000909301028093000286EC90E0909303024A
:10116000809302021092050210920602109207026A
:10117000109208028AEB92E00E94570887EB92E0F7
:101180000E94570884EB92E00E9457081092980240
:1011900010929702C0929902D0929A02E0929B021A
:1011A000F0929C028DE191E09093960280939502DB
:1011B0001092AC021092AB021092AE021092AD02ED
:1011C0001092B0021092AF021092B2021092B102CD
:1011D0006091B3026E7F6D7F6093B302669561701C
:1011E00081E0682783E00E94DF0061E083E00E94E5
:1011F0000D01E1EBF0E0E491E093A502EDE9F0E010
:10120000E491F0E0EE0FFF1FE057FF4F85919491BE
:101210009093A7028093A60260E082E00E940D01F5
:101220008091B30281FD04C061E082E00E94DF0092
:1012300082E08093A102E0EBF0E0E491E093A2026F
:10124000ECE9F0E0E491F0E0EE0FFF1FEA57FF4F0A
:10125000859194919093A4028093A3026DE271E032
:101260008FE892E00E9470066DE271E089E892E0FA
:10127000FF90EF90DF90CF900C947006CF93DF93A8
:10128000CDB7DEB76E970FB6F894DEBF0FBECDBFF9
:10129000789484B5826084BD84B5816084BD85B551
:1012A000826085BD85B5816085BD80916E0081605D
:1012B00080936E0010928100809181008260809303
:1012C0008100809181008160809381008091800005
:1012D0008160809380008091B10084608093B10030
:1012E0008091B00081608093B00080917A0084602A
:1012F00080937A0080917A00826080937A00809156
:101300007A00816080937A0080917A00806880936F
:101310007A001092C1001092B0021092AF021092A7
:10132000AE021092AD021092AC021092AB028DE9A7
:1013300091E09093B2028093B1029091A102963114
:1013400008F047C02DEB30E03093AC022093AB02A5
:101350002BE931E03093AE022093AD022CE231E074
:101360003093B0022093AF022091680084E098305F
:1013700048F031E09E3008F430E081E001C0880F91
:101380003A95EAF7822B809368002DE630E098309A
:1013900050F02BE630E09E3030F02CE630E0963115
:1013A00010F030E020E03093A9022093A802292F0A
:1013B00030E0983008F0A1C181E001C0880F9A9513
:1013C000EAF78093AA028091B1029091B20201974C
:1013D000F1F78091AF029091B002892B49F1E09131
:1013E000D801F091D90182E0E539F80709F1309789
:1013F00039F0A389B4899C918589809589238C9340
:101400008091B3028E7F8093B3021092D701109225
:10141000D60185E992E09093D9018093D801E091BB
:10142000A802F091A90280819091AA02892B808361
:10143000E091FC01F091FD0182E08083E091F801F0
:10144000F091F9011082E091FA01F091FB018FEC2B
:10145000808310920402E0910002F091010286E084
:101460008083E091FE01F091FF01808180618083A3
:10147000E091FE01F091FF01808188608083E0911E
:10148000FE01F091FF01808180688083E091FE0180
:10149000F091FF0180818F7D808360E083E00E9476
:1014A0000D0160E087E00E940D0160E08DE00E9488
:1014B0000D0160E082E00E940D0161E083E00E9486
:1014C0000D0169E070E08AEB92E00E94E3036BE0BB
:1014D00070E087EB92E00E94E3036AE070E084EB47
:1014E00092E00E94E3037E01E9E1EE0EF11C882404
:1014F0008A9493E0992EA12CB12C7724739480E0E8
:10150000C82E80E0D82E83E00E94B600019709F033
:1015100001C1709200018DE00E94B600019709F0B0
:10152000FCC07092E20187E00E94B600019769F466
:101530008091DA019091DB01873091050CF0F0C0C9
:1015400001969093DB018093DA0165E070E080E022
:1015500090E00E9478018091E201882309F4E5C0BF
:101560006EE271E08CEE91E00E94EC046091E20189
:1015700070E08CEE91E00E948E056FE371E08CEEDE
:1015800091E00E94EC0466E471E08CEE91E00E9430
:10159000EC048091DA019091DB010E94700568EC07
:1015A00070E080E090E00E9478018091E201882361
:1015B00009F45BC10E94530485E992E00E942D0367
:1015C000181619060CF08DC085E992E00E944303BD
:1015D000182F89831A8241E050E0BE016F5F7F4F70
:1015E0008FE892E00E94DA051B3309F07AC060911F
:1015F0008F02709190026115710509F42EC140911E
:1016000093025091940289E892E00E9419066DE2DB
:1016100071E08FE892E00E943A0640918D0250916D
:101620008E026091890270918A028CEE91E00E9494
:10163000AB0140908D0250908E021A8219821C825A
:101640001B821E821D8250E040E06DE271E0CE01FF
:1016500001960E94190680918D0290918E0200974A
:1016600009F182018017910708F48C01E091890249
:10167000F0918A02E00FF11F508010826091890280
:1016800070918A02CE0101966115710509F4EAC0D4
:101690000E943A068091890290918A02080F191FD0
:1016A000F801508289819A81212C312C21010097E7
:1016B00019F00E94A70C1B013092DB012092DA0185
:1016C000CE0101960E94AA05B1018CEE91E00E9424
:1016D0008E056091DA017091DB0185E992E00E944C
:1016E0008E05C114D10409F40ECF0E94150288237F
:1016F00009F403CF0E94000000CF9E3040F4285030
:10170000310981E001C0880F2A95EAF75ACE2E50A0
:101710003109F7CF10920001FECE1092E20103CF03
:101720001092DB011092DA0110CF6DE471E08CEEC3
:1017300091E00E94EC046091000170E08CEE91E079
:101740000E948E056091E0017091E101CE01019649
:101750000E9444066091DE017091DF01CE01079680
:101760000E9444066091DC017091DD01CE010D966E
:101770000E94440666E571E0CE0143960E94700621
:10178000BE01635F7F4FCE0143960E9406068C0127
:1017900046E050E062E671E00E94DA05811103C084
:1017A000C8010E949805BE01695F7F4FC8010E9471
:1017B00006068C0146E050E069E671E00E94DA0519
:1017C000811103C0C8010E949805BE016F5F7F4F61
:1017D000C8010E9406061A8E198E1C8E1B8E1E8E44
:1017E0001D8E8E159F0559F0FC0160817181611578
:1017F000710529F044815581C7010E941906CE0167
:1018000043960E94AA05CE010D960E94AA05CE011C
:1018100007960E94AA05CE0101960E94AA054D8D49
:101820005E8D698D7A8D8CEE91E00E94AB016FE345
:1018300071E08CEE91E00E94EC0466E471E08CEEC5
:1018400091E00E94EC048091DA019091DB010E940A
:101850007005C7010E94AA05A2CE89E892E00E9405
:101860009805D5CE0E94980515CF80910001882358
:1018700009F446C080E00E943E0124EB30E0DC0128
:101880000E94C40DA50194010E94180D3093E1013E
:101890002093E001B9018AEB92E00E94670381E0A6
:1018A0000E943E0124EB30E0DC010E94C40DA50142
:1018B00094010E94180D3093DF012093DE01B901DD
:1018C00087EB92E00E94670382E00E943E0124EBD6
:1018D00030E0DC010E94C40DA50194010E94180DA6
:1018E0003093DD012093DC01B90184EB92E00E948A
:1018F00067036FE070E080E090E00E947801F1CE35
:101900000E945304EECE89E892E00E94AA058FE877
:1019100092E00E94AA058DE191E090939602809357
:1019200095028091D8019091D9018559924071F426
:10193000E091A802F091A90290818091AA0280957D
:10194000892380831092D9011092D80108951F93A2
:10195000FC0199278827BC01E89411911032E9F322
:10196000193010F01E30C8F31B3251F01D3249F40B
:10197000689406C00E94D90C610F711D811D911DD4
:10198000119110531A30B0F33EF4909580957095F4
:1019900061957F4F8F4F9F4F1F910895BB274A300E
:1019A00031F4992322F4BDE2909581959F4F0C94D8
:1019B000EF0C592F482F372F262F660F771F881FC0
:1019C000991F660F771F881F991F620F731F841F4F
:1019D000951F660F771F881F991F0895BB27FB016E
:1019E0005527AA27880F991FAA1FA41710F0A41B18
:1019F00083955051B9F7A05DAA3308F0A95DA19372
:101A0000009779F7B111B1931192CB010C94080DA5
:101A1000DC01FC01672F71917723E1F7329704C055
:101A20007C916D9370836291AE17BF07C8F30895E0
:101A3000052E97FB1EF400940E942F0D57FD07D032
:101A40000E94810D07FC03D04EF40C942F0D50958D
:101A50004095309521953F4F4F4F5F4F089590959A
:101A60008095709561957F4F8F4F9F4F08950E948D
:101A7000A30DA59F900DB49F900DA49F800D911D67
:101A800011240895B7FF0C94370D0E94370D821B67
:101A9000930B08952F923F924F925F926F927F9295
:101AA0008F929F92AF92BF92CF92DF92EF92FF926E
:101AB0000F931F93CF93DF93CDB7DEB7CA1BDB0B1A
:101AC0000FB6F894DEBF0FBECDBF09942A883988BF
:101AD00048885F846E847D848C849B84AA84B984C6
:101AE000C884DF80EE80FD800C811B81AA81B981D2
:101AF000CE0FD11D0FB6F894DEBF0FBECDBFED01E6
:101B00000895A1E21A2EAA1BBB1BFD010DC0AA1F3E
:101B1000BB1FEE1FFF1FA217B307E407F50720F056
:101B2000A21BB30BE40BF50B661F771F881F991FD1
:101B30001A9469F760957095809590959B01AC011A
:101B4000BD01CF010895A29FB001B39FC001A39F23
:101B5000700D811D1124911DB29F700D811D1124E6
:101B6000911D0895991B79E004C0991F961708F0FC
:101B7000961B881F7A95C9F780950895EE0FFF1F71
:101B80000590F491E02D09940E94A30DB7FF0895EC
:101B9000821B930B08950F931F93CF93DF93823093
:101BA000910510F482E090E0E091BF02F091C00254
:101BB00030E020E0B0E0A0E0309799F42115310545
:101BC00009F44AC0281B390B24303105D8F58A8125
:101BD0009B816115710589F1FB0193838283FE016D
:101BE00011C0408151810281138148175907E0F0EB
:101BF0004817590799F4109761F012960C931297B1
:101C000013961C933296CF01DF91CF911F910F91C4
:101C100008950093BF021093C002F4CF211531053F
:101C200051F04217530738F0A901DB019A01BD01B9
:101C3000DF01F801C1CFEF01F9CF9093C00280938B
:101C4000BF02CDCFFE01E20FF31F8193919322508B
:101C5000310939832883D7CF2091BD023091BE024C
:101C6000232B41F420910301309104013093BE02F3
:101C70002093BD022091010130910201211531050F
:101C800041F42DB73EB74091050150910601241B48
:101C9000350BE091BD02F091BE02E217F307A0F40C
:101CA0002E1B3F0B2817390778F0AC014E5F5F4FB2
:101CB0002417350748F04E0F5F1F5093BE02409324
:101CC000BD02819391939FCFF0E0E0E09CCFCF9352
:101CD000DF930097E9F0FC01329713821282A09102
:101CE000BF02B091C002ED0130E020E01097A1F4F6
:101CF00020813181820F931F2091BD023091BE025D
:101D00002817390709F061C0F093BE02E093BD02C5
:101D1000DF91CF910895EA01CE17DF07E8F54A81F8
:101D20005B819E0141155105B1F7E901FB83EA830F
:101D300049915991C40FD51FEC17FD0761F48081BB
:101D400091810296840F951FE9019983888382818E
:101D500093819B838A83F0E0E0E012968D919C91C1
:101D600013970097B9F52D913C911197CD010296EB
:101D7000820F931F2091BD023091BE0228173907B0
:101D800039F6309751F51092C0021092BF02B0930D
:101D9000BE02A093BD02BCCFD383C28340815181D8
:101DA000840F951FC817D90761F44E5F5F4F888174
:101DB0009981480F591F518340838A819B81938366
:101DC00082832115310509F0B0CFF093C002E09372
:101DD000BF029ECFFD01DC01C0CF13821282D7CF9C
:101DE000B0E0A0E0E6EFFEE00C944C0D8C01009713
:101DF00051F4CB010E94CB0D8C01C801CDB7DEB7E9
:101E0000E0E10C94680DFC01E60FF71F9C012250E5
:101E10003109E217F30708F49DC0D901CD91DC9197
:101E20001197C617D70798F0C530D10530F3CE010A
:101E300004978617970708F3C61BD70B2297C19301
:101E4000D1936D937C93CF010E94670ED6CF5B0137
:101E5000AC1ABD0A4C018C0E9D1EA091BF02B09120
:101E6000C002512C412CF12CE12C109731F58091BE
:101E7000BD029091BE028815990509F05CC0461616
:101E8000570608F058C08091010190910201009717
:101E900041F48DB79EB74091050150910601841B16
:101EA000950BE817F90708F055C0F093BE02E093D0
:101EB000BD02F90171836083A0CF8D919C91119730
:101EC00012966C90129713967C901397A815B905EB
:101ED00059F56C0142E0C40ED11CCA14DB0420F198
:101EE000AC014A195B09DA011296159780F06282FB
:101EF000738251834083D9016D937C93E114F10483
:101F000071F0D7011396FC93EE93129776CF229639
:101F10008C0F9D1FF90191838083F301EFCFF09324
:101F2000C002E093BF0269CF4816590608F42C019D
:101F30007D01D3019ACFCB010E94CB0D7C0100978C
:101F400049F0AE01B8010E94AD0FC8010E94670EB2
:101F5000870153CF10E000E050CFFB01DC0102C04D
:101F600001900D9241505040D8F70895FB01DC01DB
:101F700001900D920020E1F7089510E0C2E6D0E054
:101F800004C0FE010E94BE0D2196C336D107C9F7D9
:041F9000F894FFCFF3
:101F9400010000C1028000000000004B02AB01D828
:101FA4000198020902E701FB0100000000D102AB25
:101FB400016403D0022D034303B8020D0A0020205C
:101FC400202020626C7565746F6F74683A2000205D
:101FD4002D2D2D2D2000706F73653A20006D616EDC
:101FE4006E75616C2000202D2D207468756D623A29
:101FF4002000206964783A2000206D69643A20004A
:00000001FF
